:100000000C9446000C9458000C9458000C94580022
:100010000C9458000C9458000C9458000C94580000
:100020000C9458000C9458000C9458000C945800F0
:100030000C9458000C9458000C9458000C945800E0
:100040000C9458000C9458000C9458000C945800D0
:100050000C9458000C9458000C9458000C945800C0
:100060000C9458000C9458000C9458000C945800B0
:100070000C9458000C9458000C9458000C945800A0
:100080000C9458000C9458000C94580011241FBE76
:10009000CFEFD0E1DEBFCDBF11E0A0E0B1E001C005
:1000A0001D92A132B107E1F70E9412010C94B30135
:1000B0000C940000E82FF0E049B3EE0FFF1FE05072
:1000C000FF4F20813181220F331F306E50E002C07C
:1000D000559547958A95E2F741705527242B352B86
:1000E0003183208381E02115304F09F080E00895AD
:1000F000AC019C01ADECBCEC0E94A401FC01F695A6
:10010000E795F695E795F695E795CF01880F991F46
:100110009F01220F331F220F331F220F331F820F25
:10012000931F9A01281B390B20931C019F010E94E9
:10013000A4019695879596958795969587959C01A8
:10014000220F331F880F991F880F991F880F991F3F
:10015000280F391FE21BF30BE0931D018FEF8093F3
:100160001E019A013695279536952795ABE7B4E1A0
:100170000E94A401FC01F695E7959F01ADECBCEC53
:100180000E94A40196958795969587959695879553
:10019000BC01660F771F880F991F880F991F880F62
:1001A000991F680F791FE61BF70BE0931F019A0157
:1001B000369527953695279536952795A5ECB0E287
:1001C0000E94A401FC01F295E295EF70EF27FF7009
:1001D000EF279F01ADECBCEC0E94A401969587959A
:1001E0009695879596958795AC01440F551F880F76
:1001F000991F880F991F880F991F480F591FE41BDB
:10020000F50BE093200180911A01853050F4E82F1E
:10021000F0E0E45EFE4F9081992319F08F5F8093A8
:100220001A0108958FEF84BB15BA88EF87BB18BAFF
:1002300090EC9093100199EF9093110194EA9093B0
:10024000120190EB9093130199E99093140192E9B4
:100250009093150192E8909316018093170180E81E
:100260008093180180E98093190181E080931A013D
:10027000C0E0D0E0EE24EA94B0E7FB2E01E010E00D
:10028000DD24D394EBBA1ABAF8BAE0E0F1E060E00A
:1002900070E005C06F5F7F4F6830710561F149B351
:1002A00020813181220F331F306E50E0062E02C0B4
:1002B000559547950A94E2F741705527242B352B25
:1002C000219331932115304F29F7C801062E02C022
:1002D000880F991F0A94E2F7C80FD91FC11584E04F
:1002E000D807C0F2CF5FD340D0921A016F5F7F4F23
:1002F00068307105A1F6CE010E947800EABA18BAFA
:1003000080911A01882309F4BDCF80E019C0E82F3D
:10031000F0E0E45EFE4FE081F0E0E05FFE4F9081B0
:100320009BBBEFE9FFE03197F1F700C0000098B305
:10033000905F98BB8F5F90911A01891708F0A2CF48
:10034000823029F7EBBAEDCFA29FB001B39FC00175
:10035000A39F700D811D1124911DB29F700D811DF1
:0A0360001124911D0895F894FFCFB9
:00000001FF
